:100000006F80403813000000130000001300000050
:100010001300000013000000130000001300000094
:100020001300000013000000130000001300000084
:08003000130000007300100032
:100038000000000000000000B45A0000D45A00007C
:1000480000000000CA82000000000000000000005C
:10005800CC820000CE8200000000000000000000FA
:10006800D038000000000000D002000000000000AE
:10007800D4820000D6820000D8820000DA82000014
:10008800DC820000DE820000803D0000B23D0000FE
:10009800F03D0000223E0000543E00005E59000082
:1000A800EC820000EE820000F0820000F282000084
:1000B800F4820000F6820000F8820000FA82000054
:1000C800FC820000FE82000000830000863E0000E3
:1000D8000483000006830000088300000A830000F0
:1000E8000C8300000E8300001083000012830000C0
:1000F8001483000016830000188300001A83000090
:100108001C830000064300002083000022830000B7
:100118000E3F000026830000288300002A83000089
:100128002C8300002E8300003083000032830000FF
:100138003483000036830000388300003A830000CF
:100148003C8300003E8300004083000070400000B4
:100158004483000046830000488300004A8300006F
:100168004C8300004E83000050830000528300003F
:100178005483000056830000588300005A8300000F
:100188005C8300005E8300006083000062830000DF
:100198006483000066830000688300006A830000AF
:1001A8006C8300006E83000070830000728300007F
:1001B8007483000076830000788300007A8300004F
:1001C8007C8300007E83000080830000828300001F
:1001D8000000000000000000000000000000000017
:1001E8000000000000000000000000000000000007
:0801F8000000000000000000FF
:1002000097020120938202E0938202E0739002340D
:1002100003210500224573100530B1A81971232070
:10022000250006C006C216CAF322003093F28200EF
:10023000638402009302000816C412C81ACC1ECEB2
:1002400022D026D22AD42ED632D836DA3ADC3EDE76
:10025000C2C0C6C2CAC4CEC6D2C8D6CADACCDECEE6
:10026000E2D0E6D2EAD4EED6F2D8F6DAFADCFEDE56
:1002700003A1050009A0024573101534924037858B
:1002800000001305058073200530224573200530DA
:100290004242D2426243F243025492542255B25532
:1002A0004256D2566257F257064896482649B649F2
:1002B000464AD64A664BF64B065C965C265DB65DB2
:1002C000465ED65E665FF65F09617300203000000F
:1002D000197116CA9302000816C49302000273A093
:1002E000428006C212C81ACC1ECE22D026D22AD4F0
:1002F0002ED632D836DA3ADC3EDEC2C0C6C2CAC416
:10030000CEC6D2C8D6CADACCDECEE2D0E6D2EAD4A5
:10031000EED6F2D8F6DAFADCFEDE73110134EF0025
:10032000500DEF101067EF00F00F731101341384BC
:10033000018D0329040063040902232004007325AE
:1003400010342AC01384818C044023A02400138419
:10035000C18C044003A1040002457310153492407F
:10036000B78200009382028073A00230A24273A081
:1003700002304242D2426243F24302549254225526
:10038000B2554256D2566257F25706489648264909
:10039000B649464AD64A664BF64B065C965C265DE5
:1003A000B65D465ED65E665FF65F0961730020301B
:1003B0000000397101436EC619A0397141536AC8F2
:1003C00066CA62CC5ECE19A0397101535AD056D29A
:1003D00052D44ED64AD826DA22DC06DE33016140FA
:1003E000828241114AC026C222C406C68282B24D10
:1003F0004101024D924C224CB24B4101024B924AB8
:10040000224AB2494101024992442244B240410188
:1004100082803D432A876373C3029377F700BDEF61
:10042000ADE5937606FF3D8ABA960CC34CC30CC764
:100430004CC74107E36BD7FE11E28280B306C3408D
:100440008A069702000096966780A6002307B700E9
:10045000A306B7002306B700A305B7002305B7001E
:10046000A304B7002304B700A303B7002303B70016
:10047000A302B7002302B700A301B7002301B7000E
:10048000A300B7002300B700828093F5F50F939681
:100490008500D58D93960501D58D61B7939627007C
:1004A0009702000096968682E78086FA9680C117AA
:1004B0001D8F3E96E374C3F8A5B703A5018482801F
:1004C000EFF23FF2938701849843050798C3EF103A
:1004D00050023C45FD173CC581C7EF10303F25B7A2
:1004E0007C413CC5EF107009EF10503E29BF6342BC
:1004F00005029306803EB367D502B387D702334720
:10050000D5021385773E3345D502B307D7023E9512
:1005100082807D55828001458280EFF29FEC4964A4
:10052000C967930444939387C79363F3F402FD1759
:10053000858FF19B9107BE94B70700009387E7551D
:100540001304449311A01C4011048297E31D94FEF0
:10055000EF60C0604DBD014582800145828001454C
:100560008280EFF21FE84964C9679304449293873D
:10057000479363F3F402FD17858FF19B9107BE94B7
:10058000B70700009387A7551304449211A01C409D
:1005900011048297E31D94FEBDB5EFF29FE4B70509
:1005A000000037D50000D147294793060040014697
:1005B0009385A551130545AAEF100074EF10900F15
:1005C00099B5EFF21FE2EF10B03DEF304029EF0098
:1005D000906CEF101038EF10A043C137EF101038B7
:1005E000A524EF10C045014539BDEFF29FDFD13F93
:1005F000014511BDEFF25FDDAA89EF10806F19C1CF
:10060000EF1060572545EF10802540411309450044
:10061000631624011DA0004063012403930444FFDA
:100620002146CE852685EF00F01575F5EF10606C3C
:1006300019C1EF1020562685D1B3EF10806B81448D
:100640006DF9268565BB05C9EFF2BFD92A842E85D1
:100650003289AE84453711ED22852686A545EF10F7
:10066000A0220145231C2401230E0400231D0400A5
:1006700059BB7D55F5BF7D558280EFF29FD68357DC
:10068000850141112A8413F7070111EF185501CB99
:100690002EC60297AA8425E183578401B24593E7C9
:1006A0000701231CF400A18B89EF5C549DCF2285A8
:1006B0008297AA8409CDE957630BF500268541018D
:1006C00099B38357A401A18BEDD3E554C5BF8355DE
:1006D000A4018347C40193E58500231DB400850769
:1006E000230EF4002685410139BB85679387F7F017
:1006F000FD8D8144F9BF2A8637D50000A2851305F8
:10070000C5AAEF0070515DBF8347C50195CBEFF2DD
:100710005FCDFD1793F7F70F230EF5002A8481466E
:1007200089EB1C5989CB8297AA8611C5E9576305C5
:10073000F5003685C9B98146231D04003685E1B12F
:10074000FD5636858280EFF2DFC90347C50111CB24
:100750005C5999C3829745B96955EF00807001458E
:100760005DB17D55EF00E06F014571B9EFF27FC7D4
:100770000347C50111CB1C5D99C3829769B16955C7
:10078000EF00206E014541B17D55EF00806D0145C0
:100790009DB95C5D89C7EFF2DFC48297ADB1695541
:1007A00082800CD101458280EFF21FC283A7C189EC
:1007B0009389C18963813707854AA9A003A4C189A8
:1007C0005C4018409304C4FE5CC398C340C000C0A2
:1007D000EF10603A7C50268591C382972685EF10F2
:1007E000A022630B5503EF10E03A5285EF10101C66
:1007F0004848EF00D07B2685EF10E01D83A7C18914
:10080000638B3701EF10D01983A7C1892A8AE39738
:1008100037FBEF10B019DDB62685EF10E00FEF10B3
:1008200060375285EF109018D1BEEFF29FBB13894D
:10083000819C9384819D4A841C40110491C38297BA
:10084000E31C94FE9537C5BFEFF2BFB93716000021
:10085000B7D50000930800027D4893070020138756
:10086000819D81461306A682938545AE13858194AA
:10087000EF10404513858194EF10C06369B6EFF225
:100880005FB632892E8689452A84B684EF00D07FF0
:10089000930744011CCC5CC8231E2401A3049400CC
:1008A000014595B6EFF25FB283A7818841112EC64C
:1008B0002A8491C38297EF10B00E8357C4012A8A0D
:1008C000D5EBB247D5CFEF10C042232805028349AC
:1008D0009400AA8413094401EF10804F638F090428
:1008E00085476392F9025C486309F90483C654039F
:1008F00003C7170263F0E604D4431387440198C288
:1009000094CCD8C3DCC8B2476344F0045285EF10DE
:10091000F009EF108015845899E483A74188814439
:1009200099C32285829726854101C9BC03C7170256
:10093000E3E4E6FC9C43E31BF9FE184C9387440177
:100940001CC398CC1CCCB24723AA2401E350F0FC72
:100950001389C404700081454A85EF10C0724A852E
:10096000EF1060655285EF107004EF10001084588E
:10097000CDD455BFFD17231EF400EF10300371BF17
:10098000EF10D002F95445B7EFF2BFA583A7018855
:100990002A8491C38297EF10B0005C48130744018A
:1009A000AA84638DE7001385C7FEEF10E04B268510
:1009B000EF10C07FEF10600B0145B1B48357C40145
:1009C0008507231EF400EF10607E01452DBCEFF279
:1009D0005FA12E84AA850D45EF00F07609CD93071F
:1009E00045011CCD5CC9B707FF0085075CCD2320FE
:1009F0000502A30485006FF01FA1EFF21F9C4111B7
:100A00002EC6AA84EF10E02E2A84EF10607983A707
:100A100081882A8A99C3268582979C5023280402BC
:100A20006382870C930C540393894401930A440115
:100A3000054B130CC404DD5B83D7C401F1E7B24757
:100A40006383070E88500347540383475503636E3F
:100A5000F70603C994002285EF1080376305090269
:100A6000631B6903DC486380F9028346540303C7B0
:100A7000170263F7E600B9A803C7170263ECE604A0
:100A80009C43E39BF9FE9C4C23A057011CCC23AC58
:100A90005401232A3401B247635AF00070008145A3
:100AA0006285EF10405E6285EF10E0505285EF10D6
:100AB000E06FEF00907B0329040363000908E30D56
:100AC00079F74A8541016FF0DF9266868945EF101C
:100AD000204141B7D8432320570118CC23A2570106
:100AE0005CC855BF83C7F4018507A38FF400528506
:100AF000EF10C06B83A741880149E1D72685829713
:100B00004A8541016FF0FF8EFD1703C7F401239E54
:100B1000F40080D08346540393071700A38FF4009A
:100B2000238FD400E9B7F95752851CD8EF1000681D
:100B300079594A8541016FF0DF8BEF1060662A8A90
:100B40007DB7EFF21F8A2A84EF10A01AAA84EF1053
:100B5000206583A701882A8999C3228582971C5022
:100B6000639297088347F401FD1793F7F70FA30FDC
:100B7000F400BDE30347E40183C754036308F700AF
:100B80001306E40189452685EF1080355C4813077C
:100B900044016389E7021385C7FE0347F40108D0C7
:100BA00083C6170293071700A30FF400230FD40086
:100BB000EF10802B4A85EF10605FEF00106B01454E
:100BC0006FF07F848357C401232004028507231E0E
:100BD000F400FD57230FF4004A85EF10205D014516
:100BE0006FF07F82FD574A859CD8EF10205C7D55C1
:100BF000C5BFEFF20FFF4111EF10805A1387C18478
:100C00008347070083A64184850793F7F70F2300E6
:100C1000F70081C62AC682963245EF10205941015D
:100C20006FF06FFEEFF2EFFB4111EF10605713878B
:100C3000C1848347070083A68184FD1793F7F70FCC
:100C40002300F70081C62AC682963245EF1000566F
:100C500041016FF04FFB03C5C1848280EFF26FF852
:100C6000137308044111AA8863120316356F130F1A
:100C70000FDE93730801638003141378E8FF9E84EA
:100C8000930F0002137528006306051463480614C9
:100C9000137548001304B0026300051A63140614A8
:100CA000930600032300D1000143854E768863D369
:100CB000FE003E8833070741130EF7FFA1E0631DD6
:100CC0000414635BE01813861800468713050002BE
:100CD00072966374B7002300A7000507B306E640C9
:100CE000E349D0FE9346FEFFFD86B376DE00130790
:100CF000FEFF158F8506B698130EF7FF63160412D4
:100D0000639D0302B386C801468685066353E014DB
:100D10006374B6002300F60105063387C640E34935
:100D2000E0FE9346FEFFFD86B376DE001307FEFF6E
:100D3000158F8506B698130EF7FF3305D8414695F3
:100D40009306000363D20E1163F4B8002380D80029
:100D50008508E39BA8FE8DC713081300B306610046
:100D6000AA87B308050163F6B70003C6060023800F
:100D7000C70085073386F840FD16E346C0FE42955E
:100D800093061E00AA8713060002AA966352E00289
:100D900063F4B7002380C70085073387F640E34933
:100DA000E0FE1347FEFF7D87337EEE00050E729551
:100DB00041016FF04FE51375180093741801930FFC
:100DC0000003E31105EC930F00026DBD356F130FA7
:100DD000CFD345B50144E30506EC29A03306C04056
:100DE0001304D0020143A94239A811827A95034E17
:100DF00005001308130033050101A30FC5FFC28EC0
:100E0000E30606EA42831375F600E39056FE337557
:100E1000D6023356D602D9BF635AE0028546130E76
:100E2000E7FFE312D7EA795E63F4B8002380880015
:100E3000728785087D1EE9B5137888003334000178
:100E40001604E30F06E479BF468531B7130EE7FFBA
:100E5000E1BF72877D1ED5B59306E7FF7287368E98
:100E600045B5EFF20FD82A84FD3309C523A8818444
:100E70006FF06FD9EF00F06775D900D96FF0AFD878
:100E80008D4763F2C70693773500A5EF93F7F50F0B
:100E900093968700D58F939607013D47DD8E637645
:100EA000C706930706FFC19BC107AA972A8714C3E9
:100EB00054C314C74107232ED7FEE39AE7FE1378E5
:100EC000C6003D8A630208029307C6FFF19B9107A3
:100ED000BA971107232ED7FEE31DF7FE0D8A1307DD
:100EE000F6FF11E68280AA871307F6FF65DE050785
:100EF000E205E1853E978507A38FB7FEE39DE7FEF8
:100F000082801307F6FFAA87DDB72A8775BF63F2D1
:100F1000A5023387C500637EE500B307C50015C68B
:100F20007D1783060700FD172380D700E31AF5FE1F
:100F30008280B306C500AA8711CA85050387F5FF1D
:100F40008507A38FE7FEE39AD7FE8280828015CAC9
:100F5000AA8629A04286BE86630508028505038706
:100F6000F5FF938716001308F6FFA38FE7FE7DF3C6
:100F70006309080036968507A38F07FEE39DC7FE29
:100F80008280828015CE8306050083C70500138703
:100F90001500B387F640E207E1878DE79307150058
:100FA00085C22E96630EE60005078386070003457B
:100FB000F7FF85073385A6406205618519E1FDF2DB
:100FC000014582803E8582808307050089CBAA8700
:100FD0008507038707006DFF3385A74082800145A1
:100FE0008280EFF28FBD330AB5002A8B36832E8CB8
:100FF0006375AA00134CF5FF7D5A830706005A85D6
:101000006383073AB56B4169930A50029304B002B7
:10101000938BCBAE7D19B7D90000638657036374F9
:1010200045012300F5008307160005050506F5F7C1
:10103000330B654163060C00637C452B23000500E0
:101040005A856FF00FBB830516009307D002014845
:1010500013070002930830029306000313041600DE
:101060006383F502638595026387E502638915034F
:10107000639BD502136818002286830516001304AB
:101080001600E391F5FE136808012286FDB7136888
:1010900048002286DDB7136888002286F9BF1368EE
:1010A00008022286D9BF138705FDA547AE8663F5E2
:1010B000E7069307A0027D576382F5089306E002D6
:1010C000FD57638AD50293F6B5FF93088006014663
:1010D00063971601050413F6F50F83050400938545
:1010E000B5FD93F5F50F9306300563EEB61C8A0542
:1010F000DE959441828683061400A54713061400EA
:10110000938806FDB68563FA171F9307A002638EC6
:10111000F6203284814745BF0147254693172700B3
:101120003E9705040607369783060400130707FD5C
:10113000938706FDB685E373F6FE49B703270300E0
:1011400013042600830526001103E35907F633072D
:10115000E040136808019DB713680804C146930571
:10116000C006930C43006306B60093058006630F28
:10117000B60003260300D285EFF05FAE83071400AC
:10118000130614006683E39A07E85DB5937528009B
:10119000032603006386051A42064186E9BFA1467D
:1011A0007DBF13682800A9465DBFA9464DBF8326B1
:1011B000030011036384061E0386060063010622F2
:1011C00083851600368619A0830516000506EDFDF9
:1011D000B305D6406355F00063D3B700BE851378DE
:1011E00008011306F7FF630708186358B01EB3071A
:1011F000B500637645010388060023000501050557
:101200008506E398A7FE930616003E851306140094
:1012100013080002BE9663DBE500637445012300FA
:1012200005010505B387A640E3C9F5FE8307140051
:10123000E39507DEF5BBFD56630BD71003260300CD
:10124000C146D285930C4300EFF05FA183071400E1
:10125000130614006683E39207DCD9BB13780801F8
:101260009306F7FF6309080E1308430063764501F0
:10127000832703002300F5009305150093871600CC
:101280003E9513061400AE8713070002635BD0126D
:1012900063F447012380E7008507E31BF5FE83071E
:1012A00014003385D5004283E39907D651B36376A2
:1012B0004501930750022300F500050513061400AD
:1012C00083071400B5B763764501930750022300E6
:1012D000F5008307040013071500B5C763744701C1
:1012E000A300F5000905130614008307140089B74D
:1012F000A30F0AFE5A856FF0CF8F8148A54E0506D1
:101300009397280083050600C6978607B697138E25
:1013100005FD938807FDAE86E3F3CEFF93C7F8FF84
:10132000FD87B3F7F800328479BB83270300830578
:101330002400110393C6F7FFFD86F58F090461B3FE
:10134000337626010DBD3A85330B6541E5B113684F
:1013500018002147E5B5B307D5001306000263580E
:10136000D004637445012300C5000505E39BA7FE77
:10137000FD56DDBDB307B740AA971308000263D935
:10138000E50463744501230005010505E31BF5FE33
:101390003387E54032971306F7FF81BD9305E004DC
:1013A000938689DD05B5014BE30C0CC871B193063A
:1013B000E7FF13084300E36D45EB930515001306A3
:1013C00014008307140042832E85E39807C48DB16F
:1013D0009307E7FF32873E8609BDAA872DB5814571
:1013E000D5BB03A541858280EFE2BFFF1384418511
:1013F00003290400EFF00FA001CDAA84084019C111
:10140000EFF08FB0930530042685EFF00FA704C0EE
:101410004A856FE05FFF828039711303410226CA5B
:1014200022CC2ED232D436D62A869A869305F0075D
:10143000138581BD06CE4AC83AD83EDA42DC46DE84
:101440001AC613844185713EAA86084005CD03590A
:10145000A5019307F00713670904231DE50063E066
:10146000D702138681BD8145EFF04FB01C40F2409A
:101470006244239D2701D244424921618280930620
:10148000F007C5B7138581BD7937F2406244D24475
:10149000424921618280EFE2DFF437D50000130575
:1014A00005D59D3F37D500001305C5D5B53737D5D0
:1014B000000037D70000130707D88D4605468D4535
:1014C0001305C5D8913F37D500001305C5DAA937F4
:1014D0006FE07FF315CD9377F50F9DE3C167938799
:1014E00007F0E98FB9E3B707FF00E98F85E7B56734
:1014F0009387C7C361813E950345050065058280DA
:1015000035671307C7C3BA9703C50700050582806F
:10151000014582804185B5679387C7C31375F50F71
:101520003E9503450500450582802185B567938773
:10153000C7C31375F50F3E95034505002505828049
:1015400003A7C1855C41BA976305F50283D62700DE
:101550008DE283A68185638EF60093860186904294
:10156000630CF602D043B306E54050C1DC43BA97A2
:1015700094C71445B307D700630FF50003D62700BF
:1015800019EA138601860C42638AA5005041D0C334
:101590005C413E9714C7828088C2E9B71CC2FDB780
:1015A000EFE23FE483A5818637D50000130545DFD0
:1015B000A53583A5418737D50000130585E0A93DF2
:1015C00083A5418637D500001305C5E1B1356FE02D
:1015D0009FE3EFE21FE113F7C5FFE14663F9E60081
:1015E00093073500F19B930687FE63FBF6002E867A
:1015F000AA8537D500001305C5EB393D6FE0BFE084
:1016000009661D8F130606EA930647FF90C34966D5
:101610003388D700D4C323A407001384C1851306DD
:1016200006EAB7D5000021172320C8002322D800DE
:101630002324D8001CC081460546938545EB1385BD
:1016400081C523A4E18623AC0185EFF04FA31840A8
:1016500023A0E1866FE03FDBEFE2BFD825C913840A
:1016600081861C4093043500F19863E19706B147E9
:1016700063ECF404FD55138581C5EFF0AFA213832D
:1016800001860328030003A6C18583280400B3074D
:10169000C840B385984063F1B7023304F60083561F
:1016A0002400584099E6B306F740138546FF63735C
:1016B0009502BA87E363B7FE138581C5EFF0CFAC1F
:1016C000014422856FE03FD4B1446DB701442285C7
:1016D0006FE07FD393854187938E4186138F84017A
:1016E00003AE050083AF0E006370E505F2968547F3
:1016F0002311F40094C163F4DF0023A0DE008967A6
:10170000938707EA2310F400630E8804138581C5CC
:10171000EFF08FA783A701873104C5D72285A6855F
:10172000829722856FE03FCE9386C400BE96330534
:10173000D60058C10967130707EA18C11CC554C071
:101740005C4105472311E400B10863841701B29797
:1017500094C79307CE00A6979CC1E3F2FFFA23A09B
:10176000FE0071BF83572800D5D383A781856315F9
:10177000F80069BF638B07010328480032980357BC
:1017800028006DFB2320030151B72320F300BDBFC8
:10179000EFE23FC5B304B50226857D3D2A8409C525
:1017A00026868145EFF0CFED22856FE0DFC55DC570
:1017B000EFE29FC183A7C1862A8491C38297938455
:1017C000C1859C406366F40083A781856364F4004F
:1017D0006FE0DFC2FD55138581C5EFF0AF8C8357F5
:1017E00064FF130944FF81CB035744FF8967938744
:1017F00007EA6303F70237D50000130585E6EFF02B
:10180000BFC1835644FF035664FF37D50000CA8525
:10181000130545E8EFF05FC093870186096794439D
:10182000130707EA231B04FE231AE4FE6374D9009E
:1018300023A02701138741871C43032684FF94407C
:101840004A85918F3309D9403E9923202701CD390C
:10185000138581C5EFF04F936FE05FBA8280B707C1
:101860000020938507000147938707002146944392
:10187000C1076387A6000507E31BC7FE01458280F9
:1018800012073385E5008280EFE21FB4B70700201E
:10189000B28A138907002A8AAE8993870700014715
:1018A000214629A00507C1076304C7069443E39BAB
:1018B000D9FE93144700330B9900752C03244B0079
:1018C000138744004A97630587000040E31F87FEA3
:1018D000D12493E909F823043A012146D68552859B
:1018E000EFF0EFE683A7818799C352858297EF00D7
:1018F000300B03274B009307CA005CC32326EA0082
:101900002322FB0023288A00EF00500A6FE01FAF5C
:101910009D24832740000290EFE2BFAC83A7C187DC
:101920002A8491C3829723040400EF007007544473
:1019300018489307C400D8C214C31CC85CC4EF0085
:10194000F0066FE05FACEFE23FA837070020930995
:101950000700814713070700214629A08507410793
:101960006388C7061443E31BD5FE13944700338AEC
:101970008900AA840325CA00AE8AF9392A8931C5AB
:101980000326CA008145EFF0AFCF2146230499001A
:10199000A3040900D6854A85EFF06FDB83A7818712
:1019A00099C34A858297EF00A07F83264A001307D8
:1019B000C90093074400D8C22326D9002322EA0095
:1019C000CE972328F900EF00607E4A856FE01FA3C1
:1019D0008327C0000290EFE2DFA083A7C1872A849B
:1019E00091C3829723040400EF00807B544418487D
:1019F0009307C400D8C214C31CC85CC4EF00007BAA
:101A0000228575336FE03FA0030585007D818280CC
:101A1000938781C7239C018813870710DCC39CC36D
:101A2000A107E39DE7FEFD462386D1889387C18900
:101A300023A8018823A2018ADCC39CC38280EFE231
:101A40005F9A03A5418AEFF0FFA87D159317350033
:101A5000138581C73E9508411307C5FE210523A8BC
:101A6000E188EFE0EFF96FE01F9AEFE29F97EF0058
:101A70002073839781892A89B1E703A5418AEFF012
:101A80007FA57D1513173500938781C7BA978443C7
:101A90009387018980439385C4FE6305B40203A73D
:101AA00041892386A1888CC319C32285029783C7E5
:101AB000C1841305C4019385840093F7F70F81CB8C
:101AC000EF00206F4A85EF00606E6FE0DF93EFE07C
:101AD000EFF44A85EF00806D6FE0FF92EFE27F90B8
:101AE0002A84EF00E06B0347440383475403130643
:101AF0004401419B9396370013671700938781C772
:101B0000230AE402B697CC431387418A90C1032885
:101B10000700145C0CCCD0C3B3E606015CC814C348
:101B2000EF00C0686FE03F8EEFE2BF8B2A84EF00CA
:101B3000206758481C4C930644015CC398C38347F4
:101B4000540354C813973700938781C7BA979843B3
:101B500014CC6306F700EF0060656FE0DF8A13873F
:101B6000418A1C5C144393C7F7FFF58F1CC3EF0039
:101B7000E0636FE05F89EFE2DF86EF0060629387EA
:101B8000818903D7070005072390E700EF00006273
:101B90006FE07F87EFE2FF84EF0080601387818929
:101BA00083570700FD17C207C1872310F70063564C
:101BB000F000EF00A05F6FE01F8523100700EF002B
:101BC000E05E83A70189E5DB4D356FE0DF83EFE25F
:101BD0005F8103A40189EF00A05CAA842285A93754
:101BE0009147230AF4021305C4045D262285293D8A
:101BF00085476302F50283A6C18913074401138652
:101C0000C189D8C254C823AEE18810CC2685792B6F
:101C1000A93D6FE04FFF3C5CF9FF2285EFF0DFCF7D
:101C2000F5B7EFE20FFC5049144D795718D954C25B
:101C30001307450190C218CD58C94D353D356FE0A9
:101C40008FFCEFE20FFA2A8451050CD050D0930597
:101C500030023A8608CC48C814D458D436853E8918
:101C6000C284EFF0EFA1585410544C500850711733
:101C7000B72600003A969386E6BCD52137260000A9
:101C800048CC8147230B2403A30A2403232C0402FA
:101C900064C024C423280402230A0402232C04065B
:101CA000232E04060147A286130626C2A285130529
:101CB000C4045D2483A7818A99C322858297014544
:101CC0006FE06FF4EFE24FF0B2842E8685452A84F0
:101CD0003689BA893E8AC28A468BEFF0FFBA5A88A3
:101CE000D6875287CE864A86A6852285993F6FE0A1
:101CF000EFF003A501898280EFE20FED2E89AA851E
:101D00000545B289B6843A8ABE8AEFF0DFC32A84D9
:101D100009CD2685EFF05F9401CDAA865688D2873B
:101D200026874E86CA852285293F22856FE00FEDE2
:101D30002285EFF05FCA0144CDBFEFE28FEA83470F
:101D400045032A84BD8B9DE71305C4049124914764
:101D5000230AF402B12183A6C18913074401138623
:101D6000C189D8C254C810CC23AEE1888121014575
:101D70006FE06FE9EFF05FDBC1BFEFE28FE60D21AF
:101D800003A7018985462A8683474703BD8B63964F
:101D9000D700544B1C4F6397F6003285012901454B
:101DA0006FE06FE6DCC294C3034657039306470116
:101DB0000E06938781C714CFB297D04314C210CFB9
:101DC000D4C35CCBE526EFF05FCA01456FE0AFE31B
:101DD000EFE22FE1834745030547BD8B639DE70293
:101DE0002A847D2E834744032A892285C19B93E759
:101DF0002700230AF402EFF03FD31305C404A924FB
:101E00004A856D2683A7018B814499C322858297D9
:101E100026856FE04FDFFD54E5BFEFE28FDC411117
:101E20002AC6BD2E03A401892A8922855537930429
:101E3000C404700081452685B9242685AD2A4A85CB
:101E4000B526EFF09FC21858F9576314F7002328FE
:101E50000402014541016FE00FDBEFE28FD8EFE0B4
:101E60000FE9653F6FE02FDAEFE2AFD78347450315
:101E70000947BD8B639EE7022A841D265448184CEF
:101E800093074401AA84D8C214C31CCC5CC81305B0
:101E9000C4045D2A2685192E2285EFF03FC483A74E
:101EA000C18A814499C32285829726856FE0AFD588
:101EB000FD54E5BFEFE2EFD28346650305473317D4
:101EC000D70018DD0947A30AD502230AE502693FB6
:101ED00083A7018999C3EFF05FB901456FE0AFD2E5
:101EE000EFE28FCE05444111638385048947638BFC
:101EF000F50089C5014541016FE04FD0653F4101C3
:101F00006FE0CFCFAA8432C6612C03C94403AA89EB
:101F100032461379F90063018902834706003314BE
:101F2000F400A38AF40280DC4E854924E1B7EFF087
:101F3000DFE041016FE08FCC2685EFF0FFBE324637
:101F40002685834706003319F900A38AF40223ACDF
:101F50002403EFF0BFB8C9BFEFE20FC7328A2E8665
:101F6000A9452A84BE84B6893A89EFF0FF91930788
:101F70004401F998A3049400232E44012320340340
:101F800023240402232224031CCC5CC86FE00FC767
:101F9000EFE22FC52A8429245448184C93074401A2
:101FA000D8C214C31CCC5CC811242285EFF0DF9684
:101FB00001456FE04FC5EFE2CFC22A84D5221C4C09
:101FC0005848930444015CC398C38347940004CCED
:101FD00044C8F99BA304F400D12A83A7418899C37C
:101FE00022858297EFE06FCD5C50AA971CD44D2AD2
:101FF0001387018C032847009387018CB708008062
:1020000093C8E8FF9843630EF8001454504BB3058F
:10201000D6406304D60063F6B800BA879843E31647
:10202000F8FE44C358C884C31387418B0346940009
:1020300014431CCC136616008506A304C40014C305
:10204000B52201456FE02FBC83479500858B95CB6A
:10205000EFE22FB983A701882A8491C3829789224E
:102060005448184C93074401D8C214C31CCC5CC814
:10207000352A834794000145F99BA304F4006FE0DF
:102080008FB87D55828085476387F50263D0B7029C
:1020900089476386F5028D476398F500834795006D
:1020A00093E72700A304F50001458280F5FD1C425B
:1020B0005CD1014582805C5101451CC2828083470E
:1020C0009500F59BA304F50001458280EFE2EFAE99
:1020D000EFE0AFBEAA84E920370A00802A8C9389FA
:1020E000018C134AEAFF8D4A03A40900630F3405EB
:1020F0005C481309C4FE4A859D8C63689A0483A7D3
:10210000818B91C382975C401840484414445CC35F
:1021100098C340C000C08296EFE02FBA83A7C18B5E
:10212000AA844A8591C38297834754FF13F73700E7
:1021300093F7E70FA30AF4FEE31857FB4A85EFF085
:102140009FE703A40900E31534FB628585206FE057
:102150004FAA9387018CDCC39CC3828082801106C6
:10216000719A130806F837C7ADDEC2871307F7EE7A
:1021700098C39107E31EF6FEA16793870788232083
:10218000A6F82322D6F82324B6FA2324F6F84285AB
:10219000828037F700E01C43860785831CC382805A
:1021A0002165130505807315053082807310053095
:1021B00082809387018D984319E323A4A18C23A6E1
:1021C000B18C054798C337F700E01C43B706008081
:1021D000D58F1CC38280B707EFBE37E700E0938737
:1021E00007083CC701458280EFE2AF9F37D500006A
:1021F000130585EFEFF04FA201456FE0CFA0EFE2AE
:10220000AF9C004163088502AA84B7D9000037D982
:10221000000031A0EFF04FA00040638D84001385D3
:10222000C9659305C4FEEFF02F9F1C401305096696
:10223000E39297FE6FE08F9CEFE2AF9A2E89EFE07A
:10224000BFD8AA84EFF03F9303240900630C8900F0
:10225000130544FFEFE05FD763D3A400AA840040D6
:10226000E31889FEEFF01F93A14763C6970081C46E
:1022700026856FE04F99A14426856FE0CF98EFE265
:102280004F930545EFF0AFDD37D9000093044500CB
:10229000A685AA891305491AEFF01FFA2A84AA8590
:1022A00037D500001306491A1305C51AEFF0CF966B
:1022B00009CC1309F4FFB7DA00007D5A7D191385A4
:1022C0000A23EFF06F95E31B49FF37D50000130594
:1022D000051FEFF06F9483AD4900638DB40937DDBE
:1022E0000000B7DC0000054C894B114BB7DA000049
:1022F00037DA0000B7D900001309300203C79D0286
:1023000093864DFF2146A28513054D23EFF0CF9014
:1023100083C78D02BD8B638E870763817709B1CF39
:102320006383670903A7CD018347070063912707EC
:10233000BA87850783C60700E38D26FF83A80D02B1
:102340009306400603A50D01B3051701B387F540B9
:10235000B386D70203A7CD0383A74D02898D468696
:1023600013850C27B3D61603EFF00F8B83AD0D004A
:10237000E396B4F901456FE08F8713858A25EFF066
:10238000AF8903A7CD0183470700E38327FBBA8703
:1023900075B713850924EFF02F8869B71305CA2490
:1023A000EFF08F8741B7B7D7000013854726EFF0CE
:1023B000AF868DBFEFE24F810945EFF04FCA37D4AA
:1023C000000013094500CA85AA8913054414EFF0DB
:1023D000BFE6AA84AA8537D5000013064414130566
:1023E0000515EFF06F8389CC1384F4FFB7DA000092
:1023F0007D5A7D1413850A23EFF00F82E31B44FFFF
:1024000037D500001305C516EFF00F8103A449006E
:102410006306890437DB0000B7DA0000371A0100D1
:10242000104493098400930644FF03570401814735
:102430006389C90210428507E39EC9FE2146A6852D
:1024400013854A18EFE05FFD4E85EFF05FDB130563
:102450004A37EFE07FFC0040E31489FC01456FD070
:10246000FFF92146A68513054B19EFE0FFFAE5B702
:10247000EFD29FF51145EFF08FBE37D4000013095E
:102480004500CA85AA89130504F9EFF0FFDAAA848A
:10249000AA8537D50000130604F9130585F9EFE086
:1024A000BFF789CC1384F4FFB7DA00007D5A7D149E
:1024B00013850A23EFE05FF6E31B44FF37D50000E6
:1024C0001305C5FBEFE05FF503A44900630589042C
:1024D00037DB0000B7DA0000371A01001044930917
:1024E0008400930644FF1848638AC902814710425A
:1024F0008507E39EC9FE2146A6851385CAFDEFE048
:10250000BFF14E85EFF0BFCF13054A37EFE0DFF0A4
:102510000040E31589FC01456FD05FEE2146A6859A
:1025200013054BFFEFE05FEFE5B7EFD2FFE90D4595
:10253000EFF0EFB23714010013094500CA85AA89EC
:102540001305C450EFF05FCFAA84AA8537D50000E9
:102550001306C4501305850EEFE01FEC89CC1384DD
:10256000F4FFB7DA00007D5A7D1413850A23EFE0EB
:10257000BFEAE31B44FF37D500001305C510EFE0A9
:10258000BFE903A44900630D8902B7D900001844CC
:1025900013068400930644FF5C48034834018148D5
:1025A0006306E60018438508E31EE6FE2147214640
:1025B000A6851385C912EFE03FE60040E31989FCC8
:1025C00001456FD0BFE3EFD23FE01545EFF02FA9F3
:1025D00037D4000013094500CA85AA891305840071
:1025E000EFF09FC5AA84AA8537D5000013068400A2
:1025F00013050501EFE05FE289CC1384F4FFB7DA3D
:1026000000007D5A7D1413850A23EFE0FFE0E31BF1
:1026100044FF37D5000013054503EFE0FFDF03A4B7
:1026200049006308890437DB0000B7DA0000371A75
:102630000100104493098400930644FF035764018A
:102640008357440101486389C90210420508E39E8B
:10265000C9FE2146A68513850A05EFE0FFDB4E85FE
:10266000EFF0FFB913054A37EFE01FDB0040E3123C
:1026700089FC01456FD09FD82146A68513058B069E
:10268000EFE09FD9E5B7EFD23FD41945EFF02F9D8A
:1026900037D4000013094500CA85AA891305040828
:1026A000EFF09FB9AA84AA8537D500001306040865
:1026B0001305C508EFE05FD689CC1384F4FFB7DAC1
:1026C00000007D5A7D1413850A23EFE0FFD4E31B3D
:1026D00044FF37D500001305850AEFE0FFD303A4BC
:1026E00049006306890437DB0000B7DA0000371AB7
:1026F0000100104493098400930644FF03578401AA
:1027000081476389C90210428507E39EC9FE2146BD
:10271000A68513850A0CEFE03FD04E85EFF03FAE63
:1027200013054A37EFE05FCF0040E31489FC014511
:102730006FD0DFCC2146A68513054B0DEFE0DFCD32
:10274000E5B7EFD27FC85D712545EFF04F91B567D2
:10275000938747A5AA89130945000A879386070529
:1027600003A80700C8438C47D0472320070148C36C
:102770000CC750C7C1074107E394D7FE37D4000008
:10278000CA85130584F2EFF03FABAA84AA8537D53A
:102790000000130684F2130505F3EFE0FFC713846E
:1027A000F4FF99C8B7DA00007D5A7D1413850A2317
:1027B000EFE09FC6E31B44FF37D50000130585F506
:1027C000EFE09FC503A449006308890437DA0000DD
:1027D000D14931A803A707FB834704012146A685F9
:1027E0001305CAF7EFE05FC300406307890218448E
:1027F0009008930644FF93172700B297E3FCE9FC87
:102800008347040146472146A6851305CAF7EFE032
:10281000BFC00040E31D89FC014561616FD01FBE50
:10282000EFD29FBA2945EFF08F8337D40000130908
:102830004500CA85AA8913058429EFF0FF9FAA8461
:10284000AA8537D50000130684291305052AEFE071
:10285000BFBC89CC1384F4FFB7DA00007D5A7D1425
:1028600013850A23EFE05FBBE31B44FF37D500006D
:102870001305852CEFE05FBA03A44900630F8902BA
:10288000B7DA000037DA0000B7D900005C4C184C0A
:102890001385CA2E930644FF2146A685EFE0DFB7D5
:1028A0008347D4FF13854930858B99E313050A319B
:1028B000EFE09FB60040E31B89FCEFD01FC0AA8564
:1028C00037D5000013050532EFE01FB501456FD085
:1028D000FFB2EFD27FAF37D50000130505F0EFE070
:1028E000BFB303A4818D83A7C18D6379F402B7D9E7
:1028F000000037DA00000440938549F10946268537
:10290000EF80304DA68511C5504013058AF1EFE0E8
:10291000BFB083A7C18D3104E36FF4FC01456FD0D4
:10292000FFADEFD27FAA37D500001305C57BEFE0DE
:10293000BFAE03A4818D83A7C18D637AF402B7D99A
:10294000000037DA000004409385897D194626850A
:10295000EF8030489385640011E5504013050A7EEE
:10296000EFE09FAB83A7C18D3104E36EF4FC371514
:10297000010013054537EFE03FAA01456FD01FA8BE
:1029800005458280EFD27FA37971AA84AA95930727
:102990000002254703840400338995406304F40052
:1029A0006314E4008504FDB7014563150900456122
:1029B0006FD03FA4014B13070002A54631A0638DE1
:1029C000D700630B5901568B930A1B00B387540140
:1029D00083870700E395E7FE03AA818D83ABC18D52
:1029E000637B7A0337DC000083290A0019469305CC
:1029F0008C7D4E85EF80F03D5686A68511E91385C6
:102A00006900EF80103DDA9901E5838779009DC761
:102A1000310AE36B7AFD268719C40507830707008F
:102A200093F7F7FDFDFB37D500001305457A23002A
:102A30000700A685EFE05F9E7D5595BF83298A003C
:102A4000E38B09FC130A810002C402C602C802CA51
:102A500002CC02CE02D002D202D402D6D28EA687F7
:102A60000147014513080002A545A94F130E200296
:102A7000130FC00563040401631BB40063792705C9
:102A8000238007008507038407000507E5B7630374
:102A9000F5056377270F0505630CC407B308E94004
:102AA00023A0FE00BE98BE8629A0630CB400638CF0
:102AB000D8048506038406003386E6001D8EE316DF
:102AC00004FF63722605910EB687328765B7A94762
:102AD0006318F50A37D5000013050578EFE0DF939A
:102AE000041837D4000083250A001305047A110A5C
:102AF000EFE09F92E39944FF371501001305453736
:102B0000EFE09F9129452C00829945616FD07F8E1F
:102B100083861700850723A0FE000507638BC60781
:102B2000E37327FF0383170093881700130617002A
:102B30006381E6039A866389C6033287C687E37496
:102B400026FD038317009388170013061700E393ED
:102B5000E6FF9A86E313C3FF838627009388270046
:102B600013062700E39BC6FDE37F26F923800800B8
:102B7000050693861800E37826F903841800A1B7A8
:102B800059F103840400930700022687E315F4E853
:102B900059BD3A86BE88C9BFEFD23F828307050080
:102BA000CDCF03AC818D83A7C18D6376FC0A2A89C2
:102BB000814A014B37DA0000B7DB000031A083A760
:102BC000C18D310C6372FC08832C0C0019469305EF
:102BD0008A7D6685EF80F01F7DF14A85EF80501E6B
:102BE00093846C002A86A6854A85EF80901E2A84ED
:102BF00079F563170B002685EF80901C2A8BA68A37
:102C000083870A008DC703876C0015C36391E702B1
:102C1000A687568531A08386070081CA6317D7002F
:102C200005050307050085077DF733045541635308
:102C30006401228BA68513858B7EEFE0EFFD83A7D1
:102C4000C18D310CE362FCF863870A005A86D68591
:102C50004A85EFE0CFAF6FD0CFF981450145EFF066
:102C60005FCC6FD00FF9EFD2CFF7EFF04FE1014516
:102C70006FD06FF9EFD2EFF6EFE09F9201456FD082
:102C80008FF8EFD20FF603A5418DEFD0FFCF0145AE
:102C90006FD06FF7EFD2EFF4B71701009387077D7E
:102CA00023ACF18CB72701009387079223AEF18CF8
:102CB000B72701009387079223A0F18EB727010061
:102CC0009387079293050021054523A2F18E138473
:102CD000418DEFE0FFAB08C031C1B735000037E5EB
:102CE0000000A94755479306004001469385A5E299
:102CF0001305058AEFF04F80AA840840B7E500006D
:102D0000814601469385858AEFD07FB7014481C40F
:102D10002685EFF02F9A22856FD0EFEE37E5000081
:102D200013058588EFE04FEF7D54F5B7EFD26FEBD9
:102D3000EFF01FC5138481D71DC5B777682093872F
:102D4000D7361CC023020400138581D7EF805007BB
:102D500022959307E0032300F500A30005001385E7
:102D600081D76FD04FEAB7776E73938767961CC091
:102D70008967938787062312F40023030400E9B7C9
:102D8000EFD22FE62A8437E500001305458CEFE0EB
:102D9000AFE8EFF0BFF9AA8537E500001306A41BE2
:102DA0001305C58CEFE04FE701456FD0CFE5EFD2BB
:102DB0004FE32A84EFD01F842DC11384418D1C4022
:102DC000AA8483A7C7206388A70493053014EFD093
:102DD000DF8A31E1032904000325C92019C9EFD096
:102DE000BF921C40814503A5C720EFD09F9B0329BC
:102DF00004008145130600051305A91BEFD06FE100
:102E0000B73500002315092023269920938525C86E
:102E10002685EFD01F996FD00FDF37E50000A28520
:102E200013058586EFE04FDFFDB7EFD28FD813840F
:102E3000418D1C40011103C7470283A6C7201367B9
:102E400017002382E702638E0648EFF03FEEEFE0C3
:102E5000AFDC37E90000832D0400B7EB0000ED4440
:102E6000A549130AF007A14A354B39A00840FD5582
:102E7000EFD05FA3832D040003A5CD208546130664
:102E8000F101FD55EFD03F8C8547E311F5FE030CB2
:102E9000F101832D0400630F9C0C03A70D02630E48
:102EA000A70C89466302D706E3080CFC63053C299E
:102EB000630C4C0D630A5C0D03C7AD20630A6C1BE9
:102EC000A9466307DC1A9306F00463F2E61423852F
:102ED0000D208146EE96238D861B03C74D02058B80
:102EE00035EF03C7AD2083C6BD20050785061377E0
:102EF000F70FA385DD202385ED209306F004E3FD85
:102F0000E6F623950D208DBF23A00D0213071004B4
:102F1000630AEC0A130720046302EC1E1307400443
:102F20006309EC2E13073004E310ECF803C7BD204F
:102F300083C6AD20E372D7F4B387ED008385A71B6A
:102F4000B7E700001385478BEFE00FCD832D04001A
:102F500003C7BD200507A385ED2039BFB7E70000F3
:102F6000E2851385478BEFE02FCB832D040003C749
:102F7000AD2095BF23A0AD0201B71307B0056305CF
:102F8000EC0E23A00D020DB703C6BD20E30606EE2E
:102F900003C7AD207D161376F60F7D171377F70F55
:102FA0002385ED20A385CD20636AE61E13850B8C57
:102FB000EFE08FC6832D040003C7AD206E97230D6D
:102FC000071A5DBD03D76D02E30807EA7D174207C4
:102FD000418393152700BA9592059386AD1B93857F
:102FE000A502EE95130600052393ED023685EF80CA
:102FF000A033EF80E05C1375F50F2385AD20A3852A
:10300000AD206E85EFF0DFD7832D0400B5B503C684
:10301000BD20BA86E370E6EC9305A61B1305B61B2C
:10302000EE956E953306C740EFD07FEE832D0400FA
:1030300083C6BD203387DD00230D871B03C74D02E8
:10304000368C058B6317072603C7AD20E3DFE6E860
:103050001305098BEFE04FBC832D0400050C03C75B
:10306000AD20E347ECFE41B5094723A0ED0229B5A9
:1030700083D68D0229CF9147938CAD1B63F2D71C69
:10308000138CAD1613060005E685628536C6EF8003
:103090004027B2460DCD138DAD026A85130D0D0587
:1030A00013060005EA85EF802028E318ACFF13061D
:1030B000000581456285EFD0CFB503C6AD20E6851A
:1030C0006285EF806026954795462394FD02239301
:1030D000DD02EFF0FF8A85476301F512EFF01FC5AF
:1030E000EFE08FB3832D040013060005814513859F
:1030F000AD1BEFD00FB223950D20BDBB03D68D02C3
:1031000083D66D021307F6FF63C5E612E30606D603
:10311000420741832393ED0293152700BA95920548
:103120001387AD1B9385A502EE95130600053A851E
:10313000EF80801F7DBD03C7BD2009CF014C130563
:10314000098BEFE06FAD832D0400050C03C7BD2094
:10315000E347ECFEB717010013854737EFE0CFAB2D
:10316000EFF01F820547938DAD1B6300E514EFF070
:10317000FFBBB7E700006E86AA851385C78CEFE01A
:10318000AFA9832D04001385AD1BEF806043137539
:10319000F50F2385AD20A385AD20F9B99305B61BA6
:1031A0001305A61BEE953306C7406E95EFD03FD6AC
:1031B0001C4037E700001305878B03C7A7203E9705
:1031C000230D071A83C5B7209385A51BBE95EFE095
:1031D000AFA4832D040003CCBD2003C7AD20E34D75
:1031E00087C91305098BEFE02FA3832D0400050C7D
:1031F00003C7AD20E35787FF41B10840834745022D
:10320000858BE1EB8345A5201305A51BEFF08FF718
:10321000F1B503C7BD20E30107C61305098BEFE035
:10322000AF9F832D040003C7BD207D17A385ED202C
:10323000A1B113871600420741832393ED02E9BD34
:103240009DC21387F6FF131527003A951205130543
:10325000A50213060005E6856E9536C6EF80600A66
:10326000B246E30605E613952600369512051305CA
:10327000A5021306000581456E95EFD08F9903D7FF
:103280008D0203C6AD20E685131527003A95120579
:103290001305A5026E95EF80200983D68D02850661
:1032A000C206C1822394DD021DB56E85EFF0DF8E6C
:1032B0007DBD9386A61BB7D70000B385DD001385BF
:1032C000C765EFE06F95832D040083C6BD20368C63
:1032D000A5BBB717010013854737EFE0EF93084010
:1032E00015B7EFE00F90E30205B6EFF05FACB1BEAB
:1032F0007C4123280504232A05049C4381CBEFD27B
:103300004F8E9305850482976FD0EF8F01458280A1
:10331000EFD28F8B368981E64A856FD02F8EAA84B3
:103320003284330AD600A94909A8931587010504F8
:10333000E18526858296E30144FFFC4003470400B3
:103340009447E31437FF83D7A401B545268593F747
:103350000704E1DF8296FC40034704009447F1B77D
:1033600013F7051011C78357850193F70710C5C7D9
:1033700093F7054091C78357850193F70740C1CF65
:10338000EFD22F8693F70504930400048DC33C49C4
:1033900093F5F50F231DB5002A848DC719C393E556
:1033A0000510C58D231DB40001456FD0CF85835412
:1033B000A5013C4993F5F50F231DB50093F40404D2
:1033C0002A84E9FF79DF6845298142054181310579
:1033D000EFE08FA870442A89310529824206814591
:1033E00041822320A900EFD0BFA978402322090001
:1033F0008357A40158432324090093E70710C145CC
:1034000023282405231DF4001306001022850297AB
:103410008355A40179B76155828009482A87638F53
:103420000501EFC21FFC0D48638B05038546638FC2
:10343000D5007C41DC4382976FC0FFFC8357850138
:10344000014593E70702231CF7008280835785011B
:10345000014593F7F7FD231CF7006FC0DFFAB28632
:1034600015CE50427C458345C5012982A983420679
:10347000C2074182C183630AF6001D45D5FD9C4207
:1034800001453CC7DC427CC745BF9C423CC5DC4291
:103490007CC589C57C41B6859C43829701456FC038
:1034A0009FF6B9C2EFC25FF28357A501368A2A8917
:1034B00093F707103284B684FD59A94A85EB832718
:1034C00049044A85DC478297630C35012300A40038
:1034D000FD14050463065501FDF052856FC01FF20F
:1034E00033059A406FC09FF101458280832905050D
:1034F000854AEFE0FFCA83D6690083D749002A884E
:10350000138716004207418383A58900638FD70282
:103510008327C90403A609004285A983B296C2077E
:1035200003CB0600C1832393E900FD146364F70015
:10353000239309006394550123A40900EFE01FC7FA
:10354000230064010504D5F449BFF9F1EFE01FC67B
:10355000330A9A4059B70347C501854763E7E70037
:103560008357A50193F7071099E301458280EFC2C5
:103570005FE72A842849EFE08FA378408357A401AE
:1035800023280404584393F7F7EF231DF400130690
:103590000010C5452285029701456FC0DFE6EFC2E6
:1035A0005FE4373700001307072F18D537370000BF
:1035B0001307073658D5373700001307675518D952
:1035C000373700001307274A58D937370000130749
:1035D000073118DD373700001307A741420658DDD1
:1035E00034C14182232A050023200502232205023B
:1035F000EFD06F856FC03FE193F5F50F854763838B
:10360000F5008280EFC25FDCAA8420497D5985499C
:1036100019A0EFE0BFB9FC402685DC4782972A8AD3
:10362000630A2505EFE0DFB7035744001C40BA9753
:103630002380470183574400F8448507C207298344
:10364000C18342072312F400418363E5E70023129C
:103650000400814783566400E39DF6FA8507C2079C
:10366000C1832313F40023243401E3E4E7FA231392
:10367000040045B79C509DC7EFE09FB283574400BC
:10368000835564003384B74063F8B700E0449D8DF0
:103690002980420441800D8CEFE05FB19C50A285EF
:1036A000268582976FC09FD511CEEFC29FD37841F8
:1036B000B28783D50700035626001C438297014535
:1036C0006FC07FD47D558280EFC2BFD11387C1DF29
:1036D00078432E86AA8518431385C1DF02976FC0F1
:1036E0009FD2EFC21FD01387C1DF78432E86AA85F1
:1036F00058431385C1DF02976FC0FFD0EFC27FCE62
:103700001387C1DF7843AA851385C1DF1C478297E1
:103710006FC07FCF0DC6914581476384B6003E855B
:103720008280EFC21FCC7C418355060032849C47C7
:10373000829791472311A4003E856FC0DFCC81475B
:103740003E8582800DC6914581476384B6003E85E3
:103750008280EFC21FC97841B28783D50700035624
:1037600026005C43829791473E856FC0DFC9814741
:103770003E858280EFC2FFC69387C1DFECC3AA8576
:103780001385C1DF4947D8CB37370000130747718E
:10379000D8DB373700001307477498DF373700004E
:1037A000B0C31307876A0D4623A0070223A20702AE
:1037B00023A4070223A6070223A80702D8DFEFC02D
:1037C0009FE801456FC03FC4EFC2BFC1938741E48A
:1037D000ECC3B0C3AA850D46138541E44547D8CB59
:1037E00023A0070223A2070223A4070223A607029D
:1037F00023A8070223AA070223AC070223AE07026D
:10380000EFC07FE401456FC01FC0EFC29FBD83A71B
:1038100081E89C4382976FC01FBFEFC29FBC83A704
:1038200081E8DC4782976FC01FBEEFC29FBB83A7B2
:1038300081E89C4B82976FC01FBDEFC29FBA83A7E0
:1038400081E89C4F82976FC01FBC3745002013054D
:10385000459B8280375500201305459B8280EFC22F
:103860005FB803A781829306803EB7E700E0335735
:10387000D702C1562386D7402387D740856623A029
:10388000D710916623A0D710B7F700E023A0070058
:1038900023A20700014588C78145CCC7814613068E
:1038A000F7FF90CBD4CB3D4798C3EFC09FCBEFF051
:1038B000DFF92A84EFF01FFAAA852285EFD07FD1A5
:1038C00037E5000013054594EFD01FB26FC0BFB3BA
:1038D00073110134EFD0EFB1B7F700E023A2070076
:1038E000EFC01FBEEFD00FB473110134730020304E
:1038F000EFC23FAF854513050002EF50C0566FC0C1
:103900009FB0EFC21FAE85452145EF50C0556FC037
:103910009FAFEFC21FAD85451145EF50C0546FC03A
:103920009FAEEFC21FAC85454145EF50C0536FC0FD
:103930009FADEFC21FAB854513050004EF50A052A9
:103940006FC07FAC13F7F50F9307400663E6E702FD
:1039500093F5F50FB96792059387479EAE97944309
:103960007D57638BE600EFC2DFA783D5C70088478A
:10397000EF5020216FC03FA9828013F7F50F930706
:103980004006014563E6E70293F5F50FB967920536
:103990009387479EAE9794437D57638BE600EFC2B3
:1039A0005FA483D5C7008847EF50801C6FC0BFA5B8
:1039B000828013F7F50F9307400663E0E708EFC234
:1039C000BFA093F5F50FB9649384449E139445000A
:1039D000B389840003A70900FD5741116305F7026D
:1039E00083A749003289829703A7C9008D473EC447
:1039F0002312E10041473AC6631A0900269408449D
:103A00004C00EF50A00941016FC05F9F154763074D
:103A1000E90205476306E902630AF9028947630B75
:103A2000F90291476301F90299476309F9029D4739
:103A3000E316F9FCE1473EC6D1B7828002C67DBFDE
:103A400091473EC665BFD1473EC64DBF9307800232
:103A50003EC66DB7930780043EC64DB7F1473EC6DC
:103A600071BF13F8F50F93074006194563EE070978
:103A700093F7F50F13984700B9679387479EC2974E
:103A800083A807007D5863810809EFC2FF9303A84C
:103A9000C700014405459308000221A00504630204
:103AA0001407B3178500E31BF8FEBD4763CB8704FB
:103AB0003A8A3689AE84B289EFE08FEE131714008C
:103AC000B3058700B7070020938707088A05BE95CE
:103AD000839605002A88638096047D566397C60204
:103AE00022970A07BA9742852390970023A22701BD
:103AF0002391370123A44701EFE04FEB01456FC04D
:103B0000FF8F19456FC09F8F82804285EFE00FEADB
:103B10001D456FC0BF8ED041E31126FD03D62500A1
:103B2000E31D36FB9045E31A46FBF9B713F7F50F93
:103B300093074006194563EEE70693F5F50FB9675D
:103B40009387479E9205BE959841FD576303F706FC
:103B5000EFC23F89D445014405471306000221A066
:103B600005046305C404B3178700E39BF6FEBD4755
:103B700063CE8702EFE0CFE2931714003E94B707BD
:103B800000200A0493870708A297839607007D57B1
:103B90006389E60041677D1798C323A2070023A429
:103BA0000700EFE0AFE001456FC0FF8519456FC02A
:103BB0009F85828013F7F50F93074006194563EB45
:103BC000E706EFC27F8093F5F50F39691309499E27
:103BD00093944500B307990094437D57011163887E
:103BE000E60405476309E60439E2D0478546814784
:103BF0009305000221A085076382B7143397F6006E
:103C0000E31BC7FE3D47634BF7123967130747961F
:103C10008E07BA97D84301459357570093870706F5
:103C2000B396E6008A0737E700E0BA9794C30561C8
:103C30006FC0CFFC828003AAC700014485491307E7
:103C4000000221A00504630BE40EB3978900E31B77
:103C5000FAFEBD4763C4870E931A1400EFE04FD4F9
:103C6000A29A93972A00B70A0020938A0A08BE9A5C
:103C700003970A00FD572A8B6302F70EB3079900DA
:103C8000DC43829785450545EF50E01D83D72A0028
:103C90000D47231241013AC452C802CA4ECE63896D
:103CA000370BCDC309476396E70091473EC6C1472E
:103CB0003ECCCA9484444C002685EF40305EB71752
:103CC0000140138707C005456384E4020945638109
:103CD000F402938707400D45638CF400B727014039
:103CE00093870780B387F44093B717001395270095
:103CF0009375F40FEF4090690808EF405035B967AD
:103D0000938747960E043E94504037E700E09305B2
:103D1000000593575600B306C70093870704238016
:103D2000B6408A078546B396C600BA975A8594C3AB
:103D3000EFE0CFC7014505616FC04FEC1945056144
:103D40006FC0CFEB930780023EC6A1473ECC95B72C
:103D5000930780043EC6B1473ECCA1BFEFE00FC53C
:103D60001945F1B5EFC2EFE7B96537E50000014647
:103D70009385C59413054503EFF0DF9F6FC0AFE84F
:103D800073110134EFC0FFE60545EF40D03301CD9C
:103D9000B707002093870708D84319C388470297BD
:103DA0000545EF403034EFC0FFE773110134730075
:103DB000203073110134EFC0DFE30945EF40B0302C
:103DC00019E5EFC03FE67311013473002030B707E7
:103DD000002093870708984B19C3C84B02970945E1
:103DE000EF405030EFC01FE47311013473002030F6
:103DF00073110134EFC0FFDF1145EF40D02C01CD2E
:103E0000B707002093870708D84F19C38853029734
:103E10001145EF40302DEFC0FFE073110134730006
:103E2000203073110134EFC0DFDC2145EF40B029B1
:103E300001CDB707002093870708985719C3C857C3
:103E400002972145EF40102AEFC0DFDD73110134E6
:103E50007300203073110134EFC0BFD94145EF40EA
:103E6000902601CDB707002093870708D85B19C3B8
:103E7000885F02974145EF40F026EFC0BFDA73112B
:103E8000013473002030411122C673110134EFC098
:103E90005FD613050002EF40102329C53704002028
:103EA000130404083C4099C3684082977C4499C33A
:103EB000284882973C4C99C3684C82977C5099C3A0
:103EC000285482973C5899C3685882971305003E3E
:103ED000EF405021EFC01FD573110134324441012E
:103EE0007300203013050004EF40F01D45F9130561
:103EF0000008EF40501D5DF113050010EF40B01CAD
:103F000051FD13050020EF40101C49F9E1B74111A4
:103F100022C673110134EFC0DFCD13050040EF401E
:103F2000901A2DC537040020130404087C5C81C757
:103F30000325040882978327840881C70325C408C2
:103F400082978327440981C70325840982978327A1
:103F5000040A81C70325440A82978327C40A81C7BC
:103F60000325040B82978327840B81C70325C40B89
:103F700082974165130505C0EF40D016EFC09FCA78
:103F8000731101343244410173002030056513057B
:103F90000580EF40501359F50565EF40D01259F1F7
:103FA0000965EF4050123DFD1165EF40D0113DF91C
:103FB0002165EF4050113DF5D1B723A4A18E23A672
:103FC000B18E8280EFC2EFC14111930770142315A7
:103FD00001002314F100894728002305F1008547DB
:103FE0003EC6EF40B03D41016FC0EFC1EFC26FBFB1
:103FF00041112A89AE84130500028545EF4090687F
:10400000371400404C0013050440231421012312EF
:1040100091002315010023130100EF40306C1305BC
:10402000044005468545EF40D07A85451305044098
:10403000EF40D07B41016FC00FBDEFC28FBA371583
:10404000004013050540231205028545EF407076B8
:104050006FC06FBBEFC2EFB8B96537E5000001462E
:104060009385850313054505EFF00FF66FC0AFB9D3
:1040700073110134EFC0FFB703A5C18E83A7818EF2
:104080008297EFC03FBA73110134730020300145AD
:104090008280EFC20FB598412041DC41A14618C093
:1040A00031472315E4002316040013F7F7004111EC
:1040B0006313D7042312040013D747000D8B01C7E5
:1040C00085466301D7049983231304008D8B05472C
:1040D0006382E70481C709476385E70A2314040064
:1040E0001848B7470140938707806300F7040145EC
:1040F00041016FC04FB1A546E31ED7FA05672312F1
:10410000E4005DBF096799832313E4008D8B0547A5
:10411000E392E7FC9307006018482314F400B747C4
:10412000014093870780E314F7FC1165854511056D
:10413000EF40705337190140930700208D444C0025
:10414000130509802312F100E14726C43EC6EF4063
:10415000F01493070040130509804C002312F1006E
:1041600091473EC626C4EF4070130848A285EF4031
:10417000F06A08488545EF40907A014541016FC0DB
:104180008FA8930700402314F40099BFEFC2CFA378
:10419000375900201306499B7846B70700C0C1660F
:1041A000B7540020F98FA1061384C4A0D58F9306BD
:1041B000500354C8B74601409386068071671307C1
:1041C000072014C81165B966411138C69386C60523
:1041D0007CC68545B7070C00110574C218C01CC405
:1041E0002322040023160400EF40F047371A014051
:1041F000930700208D494C0013050A802312F1001B
:10420000E1474EC43EC6EF407009930700404C00A2
:1042100013050A802312F10091473EC64EC4EF40B9
:10422000F00708489385C4A0EF40505F08488545D3
:10423000EF40F06EB7E500009386C4A0130630107F
:10424000938545941305499BEFF06FB501454101F6
:104250006FC0CF9AEFC2EF98204193050002084843
:10426000EF40507201C91C4803D547001375F50F84
:104270006FC06F997D55EDBFEFC2AF962041AE8400
:10428000084893050004EF40F06F7DD91C48C20434
:10429000C1800545239297006FC0EF96EFC26F94DF
:1042A00041473C41638BE50245476395E502D04BAE
:1042B000884B854613575600130707060A07B7E7CA
:1042C00000E0B396C6003E9714C3014693055052D2
:1042D000EF40F06601456FC00F93D04B884B854689
:1042E0001357560013070704B7E700E00A07B39611
:1042F000C6003E9714C3054693055052EF40306404
:1043000001456FC04F90411122C626C4731101347C
:10431000B7540020EFC0FF8D9387449BA0439305C3
:1043200050520848EF40D06611E9EFC0BF8F7311BB
:1043300001343244A2444101730020301385449B70
:104340008545EFF06FAB084893055052EF40D068B9
:10435000EFC05F8D731101343244A24441017300F8
:104360002030EFC28F85638805189386F5FFC2065B
:10437000C182930725008606BE962E892A84AA87C5
:10438000014783D40700890763F3E400BA842687D2
:10439000E399F6FE0145EF10100F9307F00463EC6C
:1043A000270B8547630DF9082685EF60503F37E7F7
:1043B0000000B7E70000832B471703AB8717931A5A
:1043C0001900CA9AC20AAA8993DA0A018D44DE8CBE
:1043D0005A8C035524000904EF60703CCE85EF60D1
:1043E0006021DE85EF608054AA855A85EF60407DAC
:1043F000EF609035131A05010355E4FF135A0A01C3
:10440000EF60F039CE85EF60E01EE685EF60005288
:10441000AA856285EF60C07AEF6010339387D4FF7E
:1044200026868D0493150501C20413950701C181E9
:10443000D2864181C180EF109033E39C9AF8B7E6B1
:1044400000004A879386C617414681450145EF2003
:10445000E0356FB01FFA2685EF6070349307F009DE
:10446000AA8937E7000063E8270BA16AB7E70000D5
:10447000FD1A832B471703AB8717CA9A860AC20A0D
:1044800093DA0A0181445E8DDA8C03552400138A85
:104490002400420AEF60B030CE85EF60A015DE85C3
:1044A000EF60C048AA855A85EF608071EF60D0291F
:1044B000131C050103550400135A0A01135C0C0177
:1044C000EF60F02DCE85EF60E012EA85EF600046E8
:1044D000AA856685EF60C06EEF6010279315050111
:1044E000E28626855286C1810904D284EF103028E5
:1044F000E31D5AF9A9B70145EF10E078B7E60000CF
:104500009386061961469305000513058002EF2086
:10451000E0296FB01FEEB7E70000032B471783AA0F
:10452000871785445A8CD68B035524000904EF6005
:104530001027CE85EF60000CDA85EF60203FAA855A
:104540005685EF60E067EF603020131A05010355D0
:10455000E4FF135A0A01EF609024CE85EF608009D2
:10456000E285EF60A03CAA855E85EF606065EF6044
:10457000B01D9387F4FF2686850493150501C204B8
:1045800013950701C181D2864181C180EF10301E91
:10459000E31C99F86DB5EFB2DFE41205AA95014569
:1045A00013F4F50FEF10206E930504FF93F5F50F4C
:1045B0009307000463E1B704B967938707078A0587
:1045C000BE959C418287B7E600009386C628614667
:1045D000930500055145EF20601D03C76191B7E6C3
:1045E000000093860624130600029305000A1305B3
:1045F0004006EF20A01B6FB01FE1B7E600009386D6
:10460000461A13060002D14513052003EF20001AB5
:10461000B7E600009386061B41469305C0031305C9
:104620000005EF20A018B7E600009386061C41465F
:104630009305400613050005EF204017B7E600007C
:104640009386461D41469305C00813050005EF20DB
:10465000E015B7E600009386061E41469305400B21
:1046600013050005EF208014B7E6000041469305CE
:10467000C00D130500059386061FEF202013214669
:104680009305400E1305D002EF10B02AADB7B7E680
:1046900000009386461A13060002D1451305200335
:1046A000EF20C010B7E600009386061B4146930535
:1046B000C00313050005EF20600FB7E600009386E6
:1046C000061C41469305400613050005EF20000E29
:1046D000B7E600009386461D41469305C0081305C2
:1046E0000005EF20A00CB7E600009386061E4146A9
:1046F0009305400B13050005EF20400BB7E60000C3
:104700009386061F41469305C00D13050005EF2053
:10471000E00921469305C00B1305D002EF1070216C
:10472000D9BDB7E600009386461D13060002D145A9
:1047300013052003EF208007B7E600009386C62507
:1047400041469305000513050005EF202006B7E656
:1047500000009386862641469305800713050005D1
:10476000EF20C004B7E60000938646274146930534
:10477000000A13050005EF206003B7E600009386EA
:10478000062841469305800C13050005EF20000222
:1047900021469305000D1305D002EF1090196FB05C
:1047A0009FC6B7E600009386461D13060002D1455A
:1047B00013052003EF10907FB7E600009386C6250F
:1047C00041469305000513050005EF10307EB7E65E
:1047D0000000938686264146930580071305000551
:1047E000EF10D07CB7E6000093864627414693053C
:1047F000000A13050005EF10707BB7E600009386F2
:10480000062841469305800C13050005EF10107A29
:1048100021469305800A1305D002EF1090116FB066
:104820009FBEB7E600009386461D13060002D145E1
:1048300013052003EF109077B7E600009386C62596
:1048400041469305000513050005EF103076B7E6E5
:1048500000009386862641469305800713050005D0
:10486000EF10D074B7E600009386462741469305C3
:10487000000A13050005EF107073B7E60000938679
:10488000062841469305800C13050005EF101072B1
:104890002146930500081305D002EF1090096FB070
:1048A0009FB6B7E600009386461D13060002D14569
:1048B00013052003EF10906FB7E600009386C6251E
:1048C00041469305000513050005EF10306EB7E66D
:1048D0000000938686264146930580071305000550
:1048E000EF10D06CB7E6000093864627414693054B
:1048F000000A13050005EF10706BB7E60000938601
:10490000062841469305800C13050005EF10106A38
:104910002146930580051305D002EF1090016FB07A
:104920009FAEB7E600009386461A13060002D145F3
:1049300013052003EF109067B7E600009386061B6F
:1049400041469305C00313050005EF103066B7E636
:1049500000009386061C414693054006130500059A
:10496000EF10D064B7E600009386461D41469305DC
:10497000C00813050005EF107063B7E600009386CA
:10498000061E41469305400B13050005EF1010620B
:10499000B7E600009386061F41469305C00D130538
:1049A0000005EF10B0602146930540091305D002C1
:1049B000EF10207889B1B7E6000093864624B5B39E
:1049C000B7E6000093864624CDB3B7E60000938691
:1049D0004624A1BDB7E6000093864624F9B5B7E6A4
:1049E00000009386062591B3B7E60000938606255E
:1049F0006DBBB7E600009386062505BDB7E600004F
:104A0000938606255DB5B716010093868646130684
:104A10000002D14513052003EF105059B7E60000FE
:104A20009386462441469305600513050005EF1063
:104A3000F057B7E6000093860625414693058009A6
:104A400013050005EF10905621469305000A130543
:104A5000D002EF10006E45B6B71601009386864669
:104A600013060002D14513052003EF103054B7E6BA
:104A70000000938646244146930560051305000512
:104A8000EF10D052B7E60000938606254146930505
:104A9000800913050005EF10705121469305E005CC
:104AA0001305D002EF10E068B9B6B7E600009386B0
:104AB000461A13060002D14513052003EF10104FCC
:104AC000B7E600009386061B41469305C003130515
:104AD0000005EF10B04DB7E600009386061C414676
:104AE0009305400613050005EF10504CB7E6000093
:104AF0009386461D41469305C00813050005EF1037
:104B0000F04AB7E600009386061E41469305400B27
:104B100013050005EF109049B7E600009386061FC5
:104B200041469305C00D13050005EF10304821469E
:104B30009305C0061305D002EF10A05F6DBCB7E669
:104B400000009386862213060002930500051305D4
:104B50002003EF10B045B7E60000938606242947EE
:104B6000130600029305C00813054006EF10104419
:104B7000B7E6000029479386462361469305800CDB
:104B800013058002EF109042BDB4B7E60000938693
:104B9000C62161469305000513058002EF10104100
:104BA000B737002003D7C7321DBCB7E60000938695
:104BB000462161469305000513058002EF10103F62
:104BC00003D7818029BCB7E6000093868620614622
:104BD000930500055145EF10703D03A4C180B7E770
:104BE000000083A5071A2285EF505054EF60C035AE
:104BF0009374F50F2285EF602035B7E60000137738
:104C0000F50FA68793860620130600029305000A77
:104C100013054006EF109039F9BAB7E60000938605
:104C2000861F61469305000513058002EF101038BA
:104C300003A401816DB7B7E600009386461A1306F8
:104C40000002D14513052003EF105036B7E60000EF
:104C50009386061B41469305C00313050005EF101C
:104C6000F034B7E600009386061C414693054006E3
:104C700013050005EF109033B7E600009386461D3C
:104C800041469305C00813050005EF103032B7E622
:104C900000009386061E41469305400B1305000550
:104CA000EF10D030B7E600009386061F414693050B
:104CB000C00D13050005EF10702F21469305400429
:104CC0001305D002EF10E0466FF0FF92EFB26FF1E4
:104CD00037E500001305C529EFC00FF40144014674
:104CE00085469305F00F83D7E18FE39EF6FE83D7C9
:104CF000C1900506239F018E1376F60F3E94E314B0
:104D0000B6FE37E500001305C52AEFC0EFF01355D6
:104D10008400420541816FB00FEFEFB2EFEA1387D5
:104D2000018F0111832E05001383218F23000700BB
:104D300002C602C802CA02CC02CEA3050100034E7D
:104D400003008144814685488D431D44A54FA142FF
:104D500029A083D7E18F638DF8048347070093F779
:104D6000F70FE5DB99C02300C301138E118F2300D9
:104D7000070003430E00014F854875449303700CF0
:104D800029A083D7E18F6385F8068347070093F74F
:104D9000F70FE5DB63040F0023006E001307100319
:104DA00081476366D7082312F50005616FB00FE5F0
:104DB000239F018E8344B10083D9C19083D7C190D2
:104DC0001309010286048D8FCA9413D9F741B347A2
:104DD000F900239634FFB3872741634FF604014E51
:104DE0008347B10063F6F20CA30501008544B5B713
:104DF000239F018E83D7C190139F160085068D8F48
:104E000093DFF741B3C7FF000503C206B387F7413D
:104E10001373F30F769FC1826345F60A83D7C1905F
:104E20002310FF006374640A2300170145A0A51630
:104E300093970601C18385BF050E137EFE0FE3F134
:104E4000C3FB230017018347B1006369F40883475C
:104E5000B10093899600C209890793F7F70F93D998
:104E60000901A305F1008347B100130A01029394DD
:104E7000160093F7F70F1389170086071379F90FB8
:104E8000D297A305210103D9C7FE8347B100F69449
:104E90008506C20623902401C18263F4FF00A305A6
:104EA0000100E39236FD8347B100CE86E3EEF2F2D5
:104EB0008347B1008544850793F7F70FA305F100F9
:104EC00069BD83D7C19001432310FF00054FE3FE66
:104ED000D3EA23006E0023120500C1BD8347B10051
:104EE00093899600C209E11793F7F70F93D9090147
:104EF000A305F1008347B100130A01029394160041
:104F000093F7F70F1399170052990359C9FE8506B5
:104F1000850793F7F70FF694C206A305F1002390D7
:104F20002401C182E39836FD65BDEFB2EFC92A893D
:104F30002E8AB289EF30B01B372702401C4B93E713
:104F400017001CCB638B0902814411449397140012
:104F5000D29783D7070015652310F900EF30B01BF7
:104F6000630785001565EF30101BE31D85FE850482
:104F700093F4F40F0909E3EB34FDB72602409C4A91
:104F800009677917F98F9CCAEF3010186FB00FC7F7
:104F9000EFB28FC341112A84AE84EFF03FD3239E3A
:104FA000A1902317010037EB0000B7EA000037EAB1
:104FB00000000145EF00304D93064B24130600021C
:104FC000D14513052003EF10607E26879386CA2BF8
:104FD0004146930500055145EF10407D93064A2D4B
:104FE00041469305C0085145EF10407C83D5C191DF
:104FF00003D681802285EFF05FD283554400D5D956
:1050000095472317F1001383A5FF154808408148F1
:105010001546635068049307B8FF93F7F70F15061A
:105020006343F6028146139717002A970357070038
:10503000850793F7F70FBA96E357F6FE63F5D800A6
:1050400023170101B68805081378F80F4286E34458
:1050500068FCEFF00FB11305401FEF40A01BB7072E
:1050600000208A0493870714A697035644000C4037
:105070008843EFF09FEBB707002093870716A697AA
:105080008843930544000546EFF03FEAB707002048
:1050900093870715BE9488409305E1000546EFF01D
:1050A000DFE841016FB08FB5EFB2AFB0130101DCA3
:1050B0002EDA2ACAEFF09FC1AA8738011306001919
:1050C000814508193ADE239EF1903A84EFB06FB41F
:1050D00082C082C22314010482C682C882CA82CCE2
:1050E00082CE82D082D282D482D682D882DA82DC08
:1050F00082DE02C102C31145EFC00FD608C02320D3
:1051000005002312050011041C19E39687FE580AB6
:1051100083D6C1918907239FD7FEE31BF7FE814900
:10512000294425499544524A19A06367391301451A
:10513000EF0070355257B7E700009386C72B414602
:10514000930500055145EF106066B7E700009386B0
:10515000472D41469305C0085145EF102065B7E73C
:1051600000009386872E3307344141469305800C17
:105170005145EF10A06383D5C19103D6818052853C
:10518000EFF0BFB983574A00CDD394041397290099
:105190003697832A87E4139517002392FA00EFC00D
:1051A000AFCB23A0AA002A88630A056283D74A00EE
:1051B00085C783260A008147139717003386E600C8
:1051C00003560600429785072310C70003D74A00FD
:1051D00093F7F70FE3E2E7FE83554A009547E91599
:1051E00063D8B40415470143954615469307B7FFA6
:1051F00093F7F70F15066344F602032E0A000145E4
:1052000093981700F29883D80800850793F7F70F53
:105210004695E357F6FE6374A3002A83BA86050712
:105220001377F70F3A86E343B7FC93970601C183E0
:1052300094041397190036972316F7E083D54A0094
:1052400042858509EFF0EF911305E02E93F9F90FF0
:10525000EF30507CE39D89ECB70700209387471817
:105260003ED0B71700209389871DB717002002D6BC
:10527000138947220145EF0010215257B7E700007C
:105280009386C72B4146930500055145EF10005208
:10529000B7E700009386472D41469305C008514566
:1052A000EF10C050B257294741461D8FB7E70000A5
:1052B0009386872E9305800C5145EF10204F83D5A0
:1052C000C191524403D681802285EFF01FA5035778
:1052D00044006310074C83A70181370C0020370F6F
:1052E00000203ECC83A7C180370E0020B71E0020CF
:1052F0003ECE9C103EDCF257130C0C17130B4F31B3
:105300003ED89307210B3ED2B71700209387072082
:10531000930A6E183ED4138A8E22130D4005C2578D
:1053200083AB07009307470683D64B00958F63CF67
:10533000074483A40B00FD57814D3EC4EE87814591
:10534000DE8D930CA002A68BBE8492571385A50018
:105350000605825E930FC5FE3E951C195E8E628F18
:10536000BE9FF6867E870356070083570E00890688
:105370000907918F13D6F741B18F918F239FF6FEC6
:10538000E313E5FE938E8E02090E0905E31BDBFD98
:1053900003D44D00D14763F28706554EA94E2946E6
:1053A0003306960313876EFF13951E001377F70FCE
:1053B0005E956296B306B7009C048606BE9683D6B9
:1053C00006E78357050005071377F70F958F93D6E8
:1053D000F741B58F958F2310F6000906E31CC7FD32
:1053E00003D44D00850E93FEFE0F050E930764FF58
:1053F0007686137EFE0FE3C5FEFA9377F40F938E45
:1054000067FF93FEFE0F63F58E082947B307F74049
:1054100093F3F70F13886EFFB30704419376F80FE9
:105420006350F00613962E00769613951E000A061A
:105430005E9581479388A30076963383B6009804DF
:1054400006033A93035303E703570500B297860711
:10545000330767401353F7413347E300E2973307BD
:1054600067402390E700850603D44D0093F6F60FBE
:10547000B387160193F7F70F33070441E3CFE7FA39
:10548000850EFD1393FEFE0F93F3F30FE3E48EF806
:10549000B71700209387871D03570F009107090F47
:1054A00023AEE7FEE39AEAFFA257D686904303D7DE
:1054B000060091078906329798C3E319FAFE8547DB
:1054C00063F2872C054F1303FFFFB307A303CE97A7
:1054D0009443D84363F3E600368733089F03B3074A
:1054E0000C0183D70700B308A30309083E9762980D
:1054F000B307AF0313854800938688054E95CE9673
:10550000CA98CE9798C31C4150416373F600B28786
:105510006373F700BA8703570800910609083E979E
:1055200023AEE6FE6384A8001105F1BFB307AF0305
:105530003303A303CE97F4474E930327030563F386
:10554000E6003687B3069F03050F137FFF0FE29631
:1055500083D686023697B8CBE3678FF601470145BD
:10556000B306B7009317170086069004DE97B2962D
:1055700083D606E783D7070005071377F70F958FC4
:1055800093D6F741B58F958F3E95E36B87FCEF502F
:1055900010212A8722853AC8EF5070209307F4FF24
:1055A000B387A7032AC2CE978857EF50501FE24512
:1055B000EF50C0379245EF50E003424792452AC66C
:1055C0003A85EF502003F245EF504036B247AA85A6
:1055D0003E85EF40904BEF503017A2476373F500C4
:1055E0002AC4D247138314009374F30F03D74700E0
:1055F000A68593074706B38F8740E3D89FD4E25729
:10560000A246910723AED7FEC2563EDC1C19910676
:1056100036D8E396D7D01546A9457D588654DC1078
:105620000144014705041374F40F630DB40094435F
:105630009107E3F996FE228705041374F40FB684EC
:10564000E317B4FE9C043385E700834605E0931717
:1056500027009804BA977D161387160023A007E346
:105660002300E5E01376F60F55FA0145EF00A0613F
:10567000325AB7E700009386873052874146930538
:1056800000055145EF108012B7E70000268793868A
:10569000072413054006130600029305C008EF1007
:1056A000E01093071A00BE841305E02E3ED6EF30BB
:1056B0007036E39184BC034401049800814485471B
:1056C0002946834617009385170005076374D400A5
:1056D000BE84368493F7F50FE395C7FE0145652335
:1056E000B7E60000938606322287A94761469305F4
:1056F000C00813058002EF10600B1305E02EEF3099
:105700007031980493972400BA9703A987E4D2577D
:105710000356490013942700B70700209387071406
:10572000A297884383250900EFF03F80B707002048
:1057300093870716A2978843054693054900EFF023
:10574000CFFEB7070020938707153E940840FC0062
:10575000939514000546BE95EFF02FFD725404405A
:1057600011048840EFC0AF84268523A00400EFC059
:105770000F841C19232E04FEE39387FE13010124DA
:105780006FA0FFC625E81307000029B5FD573EC4EA
:10579000BDB5D2478C438147139617002E9693864A
:1057A00027030356060086068804AA9685072398D1
:1057B000C6E693F7F70FE3E1E7FE930727038607B3
:1057C00093161700B01A0C19AE97B29603D6C19172
:1057D0008907239FC7FEE39BF6FEF5BC6D21B7E664
:1057E00000009386862F4146930500055145EF0042
:1057F000F07B69B7939715009804BA9783D707E7AA
:1058000003D50B001D8D9357F5413D8D1D8D41B383
:10581000EFA23FBD797185451145EF30C0648545E4
:1058200013050020EF3020643165EF3080473715D5
:10583000014089474C00130505803724014023129D
:10584000F10002C6EF30802513050440EF20B03C84
:10585000854737070E00130504400C083ECC3ACEAE
:105860002302F10202C802CA02D0EF20D03F130582
:1058700004408545EF201046854513050440EF2080
:1058800050445145EF301019130504408145EF2075
:10589000705513050440B7240140EF20F0441384F1
:1058A00004402285EF20F0446DFD13850440B724A9
:1058B0000140EF209044138404402285EF2090445F
:1058C0006DFD854513850440EF20D05145616FA0E3
:1058D0009FB3EFA27FAF79712A84AE8905458545D4
:1058E0003289B68402C202C402C602C802CA02CC0D
:1058F00002CE02D002D202D402D6EF30E05422858A
:10590000EF209050930700083ECC930700103ECE46
:10591000930700404C003ED0228589674EC24AC49E
:1059200026C83ED402C602CA02D202D6EF20D068F0
:1059300045616FA0BFACEFA2DFAA41119307B01180
:10594000231501002314F100894728002305F100E5
:1059500085473EC6EF30802641016FA0DFAA37E5BC
:10596000000013054533EFB03FAB83D701910547E6
:105970006304F70683A60192C9479385818F138636
:10598000418F2310F60023900500938646020147BD
:10599000C947694803D506008507C2072A97420709
:1059A000C18341832390E5002310F6008906E39329
:1059B00007FF9387318F83C607000D8393E60601A7
:1059C0002391E1902380D70045476384E60609458B
:1059D000EF2030657300203083A60192C94793857C
:1059E000818F1386418F2310F60023900500938644
:1059F00046020147C947694803D506008507C20723
:105A00002A974207C18341832390E5002310F600C3
:105A10008906E39307FF9387318F83C607000D83C1
:105A200093E616002392E1902380D7004547E39048
:105A3000E6FA03D841901386A18F03D5219003572E
:105A400006009385618F83C605004297098F420740
:105A5000418385062310E60013F7F60F9146630B8A
:105A6000D7002380E500238007000945EF20705B05
:105A7000730020300357060009832396E19023101A
:105A8000060003C6E19103A7819003D5C1900606E5
:105A90003297238005002310A70003C7E1912380DC
:105AA000070005071377F70F238FE1908546239FA3
:105AB000D18E65BF73110134EFB0AF9337E50000AD
:105AC0001305C534EFB05F95EFB0CF957311013476
:105AD0007300203073110134EFB0AF9137E500004F
